{
  "contractName": "Rating",
  "abi": [
    {
      "constant": true,
      "inputs": [
        {
          "name": "movie",
          "type": "bytes32"
        }
      ],
      "name": "totalVotesFor",
      "outputs": [
        {
          "name": "",
          "type": "uint8"
        }
      ],
      "payable": false,
      "stateMutability": "view",
      "type": "function"
    },
    {
      "constant": true,
      "inputs": [
        {
          "name": "",
          "type": "bytes32"
        }
      ],
      "name": "ratingsReceived",
      "outputs": [
        {
          "name": "",
          "type": "uint8"
        }
      ],
      "payable": false,
      "stateMutability": "view",
      "type": "function"
    },
    {
      "constant": false,
      "inputs": [
        {
          "name": "movie",
          "type": "bytes32"
        }
      ],
      "name": "voteForMovie",
      "outputs": [],
      "payable": false,
      "stateMutability": "nonpayable",
      "type": "function"
    },
    {
      "constant": true,
      "inputs": [
        {
          "name": "",
          "type": "uint256"
        }
      ],
      "name": "movieList",
      "outputs": [
        {
          "name": "",
          "type": "bytes32"
        }
      ],
      "payable": false,
      "stateMutability": "view",
      "type": "function"
    },
    {
      "inputs": [
        {
          "name": "movieNames",
          "type": "bytes32[]"
        }
      ],
      "payable": false,
      "stateMutability": "nonpayable",
      "type": "constructor"
    }
  ],
  "bytecode": "0x6060604052341561000f57600080fd5b604051610308380380610308833981016040528080518201919050508060019080519060200190610041929190610048565b50506100c0565b82805482825590600052602060002090810192821561008a579160200282015b82811115610089578251829060001916905591602001919060010190610068565b5b509050610097919061009b565b5090565b6100bd91905b808211156100b95760008160009055506001016100a1565b5090565b90565b610239806100cf6000396000f300606060405260043610610062576000357c0100000000000000000000000000000000000000000000000000000000900463ffffffff1680632f265cf7146100675780635f4187b0146100a85780636c9d63ab146100e9578063bf58ae3d14610110575b600080fd5b341561007257600080fd5b61008c60048080356000191690602001909190505061014f565b604051808260ff1660ff16815260200191505060405180910390f35b34156100b357600080fd5b6100cd600480803560001916906020019091905050610180565b604051808260ff1660ff16815260200191505060405180910390f35b34156100f457600080fd5b61010e6004808035600019169060200190919050506101a0565b005b341561011b57600080fd5b61013160048080359060200190919050506101e9565b60405180826000191660001916815260200191505060405180910390f35b6000806000836000191660001916815260200190815260200160002060009054906101000a900460ff169050919050565b60006020528060005260406000206000915054906101000a900460ff1681565b6001600080836000191660001916815260200190815260200160002060008282829054906101000a900460ff160192506101000a81548160ff021916908360ff16021790555050565b6001818154811015156101f857fe5b906000526020600020900160009150905054815600a165627a7a723058206f17fbde50040ab80dde10ce1e59aaf4f5425290c2d958392113bd669caf665f0029",
  "source": "pragma solidity ^0.4.17;\n\ncontract Rating {\n  mapping (bytes32 => uint8) public ratingsReceived;\n\n  bytes32[] public movieList;\n\n  function Rating(bytes32[] movieNames) public {\n    movieList = movieNames;\n  }\n\n  function totalVotesFor(bytes32 movie) view public returns (uint8) {\n    return ratingsReceived[movie];\n  }\n\n  function voteForMovie(bytes32 movie) public {\n    ratingsReceived[movie] += 1;\n  }\n}",
  "sourcePath": "/home/piyush/Documents/nodepractice/Decentralized-movie-rating/backend/contracts/Ratings.sol",
  "compiler": {
    "name": "solc",
    "version": "0.4.18+commit.9cf6e910.Emscripten.clang"
  },
  "schemaVersion": "1.0.1",
  "updatedAt": "2019-10-02T17:11:41.493Z"
}